{
  "_format": "hh-sol-artifact-1",
  "contractName": "ImageFee",
  "sourceName": "contracts/ImageFee.sol",
  "abi": [
    {
      "inputs": [
        {
          "internalType": "uint256",
          "name": "_fee",
          "type": "uint256"
        }
      ],
      "stateMutability": "nonpayable",
      "type": "constructor"
    },
    {
      "anonymous": false,
      "inputs": [
        {
          "indexed": true,
          "internalType": "address",
          "name": "user",
          "type": "address"
        },
        {
          "indexed": true,
          "internalType": "uint256",
          "name": "promptId",
          "type": "uint256"
        },
        {
          "indexed": false,
          "internalType": "uint256",
          "name": "amount",
          "type": "uint256"
        }
      ],
      "name": "ImageRequested",
      "type": "event"
    },
    {
      "inputs": [],
      "name": "fee",
      "outputs": [
        {
          "internalType": "uint256",
          "name": "",
          "type": "uint256"
        }
      ],
      "stateMutability": "view",
      "type": "function"
    },
    {
      "inputs": [
        {
          "internalType": "uint256",
          "name": "promptId",
          "type": "uint256"
        }
      ],
      "name": "generateImage",
      "outputs": [],
      "stateMutability": "payable",
      "type": "function"
    },
    {
      "inputs": [],
      "name": "owner",
      "outputs": [
        {
          "internalType": "address",
          "name": "",
          "type": "address"
        }
      ],
      "stateMutability": "view",
      "type": "function"
    },
    {
      "inputs": [
        {
          "internalType": "uint256",
          "name": "_fee",
          "type": "uint256"
        }
      ],
      "name": "setFee",
      "outputs": [],
      "stateMutability": "nonpayable",
      "type": "function"
    }
  ],
  "bytecode": "0x608060405234801561001057600080fd5b506040516105a23803806105a2833981810160405281019061003291906100ba565b336000806101000a81548173ffffffffffffffffffffffffffffffffffffffff021916908373ffffffffffffffffffffffffffffffffffffffff16021790555080600181905550506100e7565b600080fd5b6000819050919050565b61009781610084565b81146100a257600080fd5b50565b6000815190506100b48161008e565b92915050565b6000602082840312156100d0576100cf61007f565b5b60006100de848285016100a5565b91505092915050565b6104ac806100f66000396000f3fe60806040526004361061003f5760003560e01c80634b44d8121461004457806369fe0e2d146100605780638da5cb5b14610089578063ddca3f43146100b4575b600080fd5b61005e600480360381019061005991906102da565b6100df565b005b34801561006c57600080fd5b50610087600480360381019061008291906102da565b6101dd565b005b34801561009557600080fd5b5061009e610275565b6040516100ab9190610348565b60405180910390f35b3480156100c057600080fd5b506100c9610299565b6040516100d69190610372565b60405180910390f35b600154341015610124576040517f08c379a000000000000000000000000000000000000000000000000000000000815260040161011b906103ea565b60405180910390fd5b60008054906101000a900473ffffffffffffffffffffffffffffffffffffffff1673ffffffffffffffffffffffffffffffffffffffff166108fc349081150290604051600060405180830381858888f1935050505015801561018a573d6000803e3d6000fd5b50803373ffffffffffffffffffffffffffffffffffffffff167f7506b6b0ccea2e01b101c79e6cca57f4b01523a37a92ea9a38d117e541bd905c346040516101d29190610372565b60405180910390a350565b60008054906101000a900473ffffffffffffffffffffffffffffffffffffffff1673ffffffffffffffffffffffffffffffffffffffff163373ffffffffffffffffffffffffffffffffffffffff161461026b576040517f08c379a000000000000000000000000000000000000000000000000000000000815260040161026290610456565b60405180910390fd5b8060018190555050565b60008054906101000a900473ffffffffffffffffffffffffffffffffffffffff1681565b60015481565b600080fd5b6000819050919050565b6102b7816102a4565b81146102c257600080fd5b50565b6000813590506102d4816102ae565b92915050565b6000602082840312156102f0576102ef61029f565b5b60006102fe848285016102c5565b91505092915050565b600073ffffffffffffffffffffffffffffffffffffffff82169050919050565b600061033282610307565b9050919050565b61034281610327565b82525050565b600060208201905061035d6000830184610339565b92915050565b61036c816102a4565b82525050565b60006020820190506103876000830184610363565b92915050565b600082825260208201905092915050565b7f496e73756666696369656e742066656500000000000000000000000000000000600082015250565b60006103d460108361038d565b91506103df8261039e565b602082019050919050565b60006020820190508181036000830152610403816103c7565b9050919050565b7f4e6f7420746865206f776e657200000000000000000000000000000000000000600082015250565b6000610440600d8361038d565b915061044b8261040a565b602082019050919050565b6000602082019050818103600083015261046f81610433565b905091905056fea26469706673582212208c08f8250c272c1425e50074c1fb9feef0466bab9f51757f70c52895c53ab6b564736f6c63430008140033",
  "linkReferences": {},
  "deployedLinkReferences": {}
}